{
  "_format": "hh-sol-artifact-1",
  "contractName": "CropCertification",
  "sourceName": "contracts/certificate.sol",
  "abi": [
    {
      "anonymous": false,
      "inputs": [
        {
          "indexed": false,
          "internalType": "uint256",
          "name": "cropId",
          "type": "uint256"
        },
        {
          "indexed": false,
          "internalType": "string",
          "name": "cropType",
          "type": "string"
        },
        {
          "indexed": false,
          "internalType": "uint256",
          "name": "quantity",
          "type": "uint256"
        },
        {
          "indexed": true,
          "internalType": "address",
          "name": "farmer",
          "type": "address"
        },
        {
          "indexed": false,
          "internalType": "bool",
          "name": "isCertified",
          "type": "bool"
        }
      ],
      "name": "CropSubmitted",
      "type": "event"
    },
    {
      "inputs": [
        {
          "internalType": "uint256",
          "name": "",
          "type": "uint256"
        }
      ],
      "name": "crops",
      "outputs": [
        {
          "internalType": "string",
          "name": "cropType",
          "type": "string"
        },
        {
          "internalType": "uint256",
          "name": "quantity",
          "type": "uint256"
        },
        {
          "internalType": "address",
          "name": "farmer",
          "type": "address"
        },
        {
          "internalType": "bool",
          "name": "isCertified",
          "type": "bool"
        }
      ],
      "stateMutability": "view",
      "type": "function"
    },
    {
      "inputs": [
        {
          "internalType": "uint256",
          "name": "_cropId",
          "type": "uint256"
        }
      ],
      "name": "getCrop",
      "outputs": [
        {
          "internalType": "string",
          "name": "",
          "type": "string"
        },
        {
          "internalType": "uint256",
          "name": "",
          "type": "uint256"
        },
        {
          "internalType": "address",
          "name": "",
          "type": "address"
        },
        {
          "internalType": "bool",
          "name": "",
          "type": "bool"
        }
      ],
      "stateMutability": "view",
      "type": "function"
    },
    {
      "inputs": [],
      "name": "getTotalCrops",
      "outputs": [
        {
          "internalType": "uint256",
          "name": "",
          "type": "uint256"
        }
      ],
      "stateMutability": "view",
      "type": "function"
    },
    {
      "inputs": [
        {
          "internalType": "string",
          "name": "_cropType",
          "type": "string"
        },
        {
          "internalType": "uint256",
          "name": "_quantity",
          "type": "uint256"
        }
      ],
      "name": "submitCrop",
      "outputs": [],
      "stateMutability": "nonpayable",
      "type": "function"
    }
  ],
  "bytecode": "0x608060405234801561001057600080fd5b50610c66806100206000396000f3fe608060405234801561001057600080fd5b506004361061004c5760003560e01c80631af683ec1461005157806370c9f1a51461006f5780638bc7fa9c146100a2578063aa149007146100d5575b600080fd5b6100596100f1565b60405161006691906104b7565b60405180910390f35b61008960048036038101906100849190610512565b6100fd565b604051610099949392919061062b565b60405180910390f35b6100bc60048036038101906100b79190610512565b6101f2565b6040516100cc949392919061062b565b60405180910390f35b6100ef60048036038101906100ea91906107ac565b610340565b005b60008080549050905090565b6000818154811061010d57600080fd5b906000526020600020906003020160009150905080600001805461013090610837565b80601f016020809104026020016040519081016040528092919081815260200182805461015c90610837565b80156101a95780601f1061017e576101008083540402835291602001916101a9565b820191906000526020600020905b81548152906001019060200180831161018c57829003601f168201915b5050505050908060010154908060020160009054906101000a900473ffffffffffffffffffffffffffffffffffffffff16908060020160149054906101000a900460ff16905084565b606060008060008080549050851061023f576040517f08c379a0000000000000000000000000000000000000000000000000000000008152600401610236906108b4565b60405180910390fd5b6000808681548110610254576102536108d4565b5b906000526020600020906003020190508060000181600101548260020160009054906101000a900473ffffffffffffffffffffffffffffffffffffffff168360020160149054906101000a900460ff168380546102b090610837565b80601f01602080910402602001604051908101604052809291908181526020018280546102dc90610837565b80156103295780601f106102fe57610100808354040283529160200191610329565b820191906000526020600020905b81548152906001019060200180831161030c57829003601f168201915b505050505093509450945094509450509193509193565b600060405180608001604052808481526020018381526020013373ffffffffffffffffffffffffffffffffffffffff16815260200160011515815250908060018154018082558091505060019003906000526020600020906003020160009091909190915060008201518160000190816103ba9190610aaf565b506020820151816001015560408201518160020160006101000a81548173ffffffffffffffffffffffffffffffffffffffff021916908373ffffffffffffffffffffffffffffffffffffffff16021790555060608201518160020160146101000a81548160ff0219169083151502179055505050600060016000805490506104429190610bb0565b90503373ffffffffffffffffffffffffffffffffffffffff167f0833b4b8f2f439db7dc3dde01c7e858b4f1defb99f6ca90b48dcc89c4065508a82858560016040516104919493929190610be4565b60405180910390a2505050565b6000819050919050565b6104b18161049e565b82525050565b60006020820190506104cc60008301846104a8565b92915050565b6000604051905090565b600080fd5b600080fd5b6104ef8161049e565b81146104fa57600080fd5b50565b60008135905061050c816104e6565b92915050565b600060208284031215610528576105276104dc565b5b6000610536848285016104fd565b91505092915050565b600081519050919050565b600082825260208201905092915050565b60005b8381101561057957808201518184015260208101905061055e565b60008484015250505050565b6000601f19601f8301169050919050565b60006105a18261053f565b6105ab818561054a565b93506105bb81856020860161055b565b6105c481610585565b840191505092915050565b600073ffffffffffffffffffffffffffffffffffffffff82169050919050565b60006105fa826105cf565b9050919050565b61060a816105ef565b82525050565b60008115159050919050565b61062581610610565b82525050565b600060808201905081810360008301526106458187610596565b905061065460208301866104a8565b6106616040830185610601565b61066e606083018461061c565b95945050505050565b600080fd5b600080fd5b7f4e487b7100000000000000000000000000000000000000000000000000000000600052604160045260246000fd5b6106b982610585565b810181811067ffffffffffffffff821117156106d8576106d7610681565b5b80604052505050565b60006106eb6104d2565b90506106f782826106b0565b919050565b600067ffffffffffffffff82111561071757610716610681565b5b61072082610585565b9050602081019050919050565b82818337600083830152505050565b600061074f61074a846106fc565b6106e1565b90508281526020810184848401111561076b5761076a61067c565b5b61077684828561072d565b509392505050565b600082601f83011261079357610792610677565b5b81356107a384826020860161073c565b91505092915050565b600080604083850312156107c3576107c26104dc565b5b600083013567ffffffffffffffff8111156107e1576107e06104e1565b5b6107ed8582860161077e565b92505060206107fe858286016104fd565b9150509250929050565b7f4e487b7100000000000000000000000000000000000000000000000000000000600052602260045260246000fd5b6000600282049050600182168061084f57607f821691505b60208210810361086257610861610808565b5b50919050565b7f43726f70204944206f7574206f662072616e6765000000000000000000000000600082015250565b600061089e60148361054a565b91506108a982610868565b602082019050919050565b600060208201905081810360008301526108cd81610891565b9050919050565b7f4e487b7100000000000000000000000000000000000000000000000000000000600052603260045260246000fd5b60008190508160005260206000209050919050565b60006020601f8301049050919050565b600082821b905092915050565b6000600883026109657fffffffffffffffffffffffffffffffffffffffffffffffffffffffffffffffff82610928565b61096f8683610928565b95508019841693508086168417925050509392505050565b6000819050919050565b60006109ac6109a76109a28461049e565b610987565b61049e565b9050919050565b6000819050919050565b6109c683610991565b6109da6109d2826109b3565b848454610935565b825550505050565b600090565b6109ef6109e2565b6109fa8184846109bd565b505050565b5b81811015610a1e57610a136000826109e7565b600181019050610a00565b5050565b601f821115610a6357610a3481610903565b610a3d84610918565b81016020851015610a4c578190505b610a60610a5885610918565b8301826109ff565b50505b505050565b600082821c905092915050565b6000610a8660001984600802610a68565b1980831691505092915050565b6000610a9f8383610a75565b9150826002028217905092915050565b610ab88261053f565b67ffffffffffffffff811115610ad157610ad0610681565b5b610adb8254610837565b610ae6828285610a22565b600060209050601f831160018114610b195760008415610b07578287015190505b610b118582610a93565b865550610b79565b601f198416610b2786610903565b60005b82811015610b4f57848901518255600182019150602085019450602081019050610b2a565b86831015610b6c5784890151610b68601f891682610a75565b8355505b6001600288020188555050505b505050505050565b7f4e487b7100000000000000000000000000000000000000000000000000000000600052601160045260246000fd5b6000610bbb8261049e565b9150610bc68361049e565b9250828203905081811115610bde57610bdd610b81565b5b92915050565b6000608082019050610bf960008301876104a8565b8181036020830152610c0b8186610596565b9050610c1a60408301856104a8565b610c27606083018461061c565b9594505050505056fea2646970667358221220dc6ded9577847376a89d8f14b5f9319b0bee00c6bb1494011ad07f7a5623bd3c64736f6c63430008120033",
  "linkReferences": {},
  "deployedLinkReferences": {}
}